{
  "address": "0x7BE4E31fE89ed235B5973e29b03Ae75eB322Db5C",
  "abi": [
    {
      "inputs": [],
      "stateMutability": "nonpayable",
      "type": "constructor"
    },
    {
      "anonymous": false,
      "inputs": [
        {
          "indexed": true,
          "internalType": "address",
          "name": "tokenAddress",
          "type": "address"
        },
        {
          "indexed": false,
          "internalType": "string",
          "name": "name",
          "type": "string"
        },
        {
          "indexed": false,
          "internalType": "string",
          "name": "symbol",
          "type": "string"
        },
        {
          "indexed": false,
          "internalType": "uint8",
          "name": "decimals",
          "type": "uint8"
        },
        {
          "indexed": false,
          "internalType": "uint256",
          "name": "initialSupply",
          "type": "uint256"
        },
        {
          "indexed": false,
          "internalType": "address",
          "name": "native",
          "type": "address"
        }
      ],
      "name": "TokenCreated",
      "type": "event"
    },
    {
      "inputs": [
        {
          "internalType": "string",
          "name": "name_",
          "type": "string"
        },
        {
          "internalType": "string",
          "name": "symbol_",
          "type": "string"
        },
        {
          "internalType": "uint8",
          "name": "decimals_",
          "type": "uint8"
        },
        {
          "internalType": "uint256",
          "name": "initialSupply_",
          "type": "uint256"
        },
        {
          "internalType": "address",
          "name": "wNative_",
          "type": "address"
        }
      ],
      "name": "createTokenWithInitialSupplyAndDecimals",
      "outputs": [
        {
          "internalType": "address",
          "name": "",
          "type": "address"
        }
      ],
      "stateMutability": "nonpayable",
      "type": "function"
    }
  ],
  "transactionHash": "0x457a03d875c43c4990ce46ba5e52633873eeda588ebe17890d5470c176f8d7da",
  "args": [],
  "numDeployments": 1,
  "solcInputHash": "8182d835a341f9e9dafb79e9d1bc3240",
  "bytecode": "0x6080604052348015600f57600080fd5b506138c58061001f6000396000f3fe608060405234801561001057600080fd5b506004361061002b5760003560e01c806333f52c4014610030575b600080fd5b61004a6004803603810190610045919061033e565b610060565b6040516100579190610400565b60405180910390f35b60008086868686866040516100749061010a565b6100829594939291906104b8565b604051809103906000f08015801561009e573d6000803e3d6000fd5b50905060008190508073ffffffffffffffffffffffffffffffffffffffff167f96277b960035611e3efe74cc6f4dc654567ad6dfe7e479ece4303ecd0321ec1289898989896040516100f49594939291906104b8565b60405180910390a2809250505095945050505050565b6133768061051a83390190565b6000604051905090565b600080fd5b600080fd5b600080fd5b600080fd5b6000601f19601f8301169050919050565b7f4e487b7100000000000000000000000000000000000000000000000000000000600052604160045260246000fd5b61017e82610135565b810181811067ffffffffffffffff8211171561019d5761019c610146565b5b80604052505050565b60006101b0610117565b90506101bc8282610175565b919050565b600067ffffffffffffffff8211156101dc576101db610146565b5b6101e582610135565b9050602081019050919050565b82818337600083830152505050565b600061021461020f846101c1565b6101a6565b9050828152602081018484840111156102305761022f610130565b5b61023b8482856101f2565b509392505050565b600082601f8301126102585761025761012b565b5b8135610268848260208601610201565b91505092915050565b600060ff82169050919050565b61028781610271565b811461029257600080fd5b50565b6000813590506102a48161027e565b92915050565b6000819050919050565b6102bd816102aa565b81146102c857600080fd5b50565b6000813590506102da816102b4565b92915050565b600073ffffffffffffffffffffffffffffffffffffffff82169050919050565b600061030b826102e0565b9050919050565b61031b81610300565b811461032657600080fd5b50565b60008135905061033881610312565b92915050565b600080600080600060a0868803121561035a57610359610121565b5b600086013567ffffffffffffffff81111561037857610377610126565b5b61038488828901610243565b955050602086013567ffffffffffffffff8111156103a5576103a4610126565b5b6103b188828901610243565b94505060406103c288828901610295565b93505060606103d3888289016102cb565b92505060806103e488828901610329565b9150509295509295909350565b6103fa81610300565b82525050565b600060208201905061041560008301846103f1565b92915050565b600081519050919050565b600082825260208201905092915050565b60005b8381101561045557808201518184015260208101905061043a565b60008484015250505050565b600061046c8261041b565b6104768185610426565b9350610486818560208601610437565b61048f81610135565b840191505092915050565b6104a381610271565b82525050565b6104b2816102aa565b82525050565b600060a08201905081810360008301526104d28188610461565b905081810360208301526104e68187610461565b90506104f5604083018661049a565b61050260608301856104a9565b61050f60808301846103f1565b969550505050505056fe61016060405234801561001157600080fd5b50604051613376380380613376833981810160405281019061003391906107f7565b84806040518060400160405280600181526020017f31000000000000000000000000000000000000000000000000000000000000008152508787816003908161007c9190610ac1565b50806004908161008c9190610ac1565b5050506100a36005836101d460201b90919060201c565b61012081815250506100bf6006826101d460201b90919060201c565b6101408181525050818051906020012060e08181525050808051906020012061010081815250504660a081815250506100fc61022460201b60201c565b608081815250503073ffffffffffffffffffffffffffffffffffffffff1660c08173ffffffffffffffffffffffffffffffffffffffff168152505050505082600860006101000a81548160ff021916908360ff1602179055506101893061016761027f60201b60201c565b600a6101739190610cf5565b8461017e9190610d40565b61029660201b60201c565b80600860016101000a81548173ffffffffffffffffffffffffffffffffffffffff021916908373ffffffffffffffffffffffffffffffffffffffff1602179055505050505050610fb0565b60006020835110156101f6576101ef8361031e60201b60201c565b905061021e565b826102068361038660201b60201c565b60000190816102159190610ac1565b5060ff60001b90505b92915050565b60007f8b73c3c69bb8fe3d512ecc4cf759cc79239f7b179b0ffacaa9a75d522b39400f60e051610100514630604051602001610264959493929190610db9565b60405160208183030381529060405280519060200120905090565b6000600860009054906101000a900460ff16905090565b600073ffffffffffffffffffffffffffffffffffffffff168273ffffffffffffffffffffffffffffffffffffffff16036103085760006040517fec442f050000000000000000000000000000000000000000000000000000000081526004016102ff9190610e0c565b60405180910390fd5b61031a6000838361039060201b60201c565b5050565b600080829050601f8151111561036b57826040517f305a27a90000000000000000000000000000000000000000000000000000000081526004016103629190610e71565b60405180910390fd5b80518161037790610ec3565b60001c1760001b915050919050565b6000819050919050565b600073ffffffffffffffffffffffffffffffffffffffff168373ffffffffffffffffffffffffffffffffffffffff16036103e25780600260008282546103d69190610f2a565b925050819055506104b5565b60008060008573ffffffffffffffffffffffffffffffffffffffff1673ffffffffffffffffffffffffffffffffffffffff1681526020019081526020016000205490508181101561046e578381836040517fe450d38c00000000000000000000000000000000000000000000000000000000815260040161046593929190610f5e565b60405180910390fd5b8181036000808673ffffffffffffffffffffffffffffffffffffffff1673ffffffffffffffffffffffffffffffffffffffff16815260200190815260200160002081905550505b600073ffffffffffffffffffffffffffffffffffffffff168273ffffffffffffffffffffffffffffffffffffffff16036104fe578060026000828254039250508190555061054b565b806000808473ffffffffffffffffffffffffffffffffffffffff1673ffffffffffffffffffffffffffffffffffffffff168152602001908152602001600020600082825401925050819055505b8173ffffffffffffffffffffffffffffffffffffffff168373ffffffffffffffffffffffffffffffffffffffff167fddf252ad1be2c89b69c2b068fc378daa952ba7f163c4a11628f55a4df523b3ef836040516105a89190610f95565b60405180910390a3505050565b6000604051905090565b600080fd5b600080fd5b600080fd5b600080fd5b6000601f19601f8301169050919050565b7f4e487b7100000000000000000000000000000000000000000000000000000000600052604160045260246000fd5b61061c826105d3565b810181811067ffffffffffffffff8211171561063b5761063a6105e4565b5b80604052505050565b600061064e6105b5565b905061065a8282610613565b919050565b600067ffffffffffffffff82111561067a576106796105e4565b5b610683826105d3565b9050602081019050919050565b60005b838110156106ae578082015181840152602081019050610693565b60008484015250505050565b60006106cd6106c88461065f565b610644565b9050828152602081018484840111156106e9576106e86105ce565b5b6106f4848285610690565b509392505050565b600082601f830112610711576107106105c9565b5b81516107218482602086016106ba565b91505092915050565b600060ff82169050919050565b6107408161072a565b811461074b57600080fd5b50565b60008151905061075d81610737565b92915050565b6000819050919050565b61077681610763565b811461078157600080fd5b50565b6000815190506107938161076d565b92915050565b600073ffffffffffffffffffffffffffffffffffffffff82169050919050565b60006107c482610799565b9050919050565b6107d4816107b9565b81146107df57600080fd5b50565b6000815190506107f1816107cb565b92915050565b600080600080600060a08688031215610813576108126105bf565b5b600086015167ffffffffffffffff811115610831576108306105c4565b5b61083d888289016106fc565b955050602086015167ffffffffffffffff81111561085e5761085d6105c4565b5b61086a888289016106fc565b945050604061087b8882890161074e565b935050606061088c88828901610784565b925050608061089d888289016107e2565b9150509295509295909350565b600081519050919050565b7f4e487b7100000000000000000000000000000000000000000000000000000000600052602260045260246000fd5b600060028204905060018216806108fc57607f821691505b60208210810361090f5761090e6108b5565b5b50919050565b60008190508160005260206000209050919050565b60006020601f8301049050919050565b600082821b905092915050565b6000600883026109777fffffffffffffffffffffffffffffffffffffffffffffffffffffffffffffffff8261093a565b610981868361093a565b95508019841693508086168417925050509392505050565b6000819050919050565b60006109be6109b96109b484610763565b610999565b610763565b9050919050565b6000819050919050565b6109d8836109a3565b6109ec6109e4826109c5565b848454610947565b825550505050565b600090565b610a016109f4565b610a0c8184846109cf565b505050565b5b81811015610a3057610a256000826109f9565b600181019050610a12565b5050565b601f821115610a7557610a4681610915565b610a4f8461092a565b81016020851015610a5e578190505b610a72610a6a8561092a565b830182610a11565b50505b505050565b600082821c905092915050565b6000610a9860001984600802610a7a565b1980831691505092915050565b6000610ab18383610a87565b9150826002028217905092915050565b610aca826108aa565b67ffffffffffffffff811115610ae357610ae26105e4565b5b610aed82546108e4565b610af8828285610a34565b600060209050601f831160018114610b2b5760008415610b19578287015190505b610b238582610aa5565b865550610b8b565b601f198416610b3986610915565b60005b82811015610b6157848901518255600182019150602085019450602081019050610b3c565b86831015610b7e5784890151610b7a601f891682610a87565b8355505b6001600288020188555050505b505050505050565b7f4e487b7100000000000000000000000000000000000000000000000000000000600052601160045260246000fd5b60008160011c9050919050565b6000808291508390505b6001851115610c1957808604811115610bf557610bf4610b93565b5b6001851615610c045780820291505b8081029050610c1285610bc2565b9450610bd9565b94509492505050565b600082610c325760019050610cee565b81610c405760009050610cee565b8160018114610c565760028114610c6057610c8f565b6001915050610cee565b60ff841115610c7257610c71610b93565b5b8360020a915084821115610c8957610c88610b93565b5b50610cee565b5060208310610133831016604e8410600b8410161715610cc45782820a905083811115610cbf57610cbe610b93565b5b610cee565b610cd18484846001610bcf565b92509050818404811115610ce857610ce7610b93565b5b81810290505b9392505050565b6000610d0082610763565b9150610d0b8361072a565b9250610d387fffffffffffffffffffffffffffffffffffffffffffffffffffffffffffffffff8484610c22565b905092915050565b6000610d4b82610763565b9150610d5683610763565b9250828202610d6481610763565b91508282048414831517610d7b57610d7a610b93565b5b5092915050565b6000819050919050565b610d9581610d82565b82525050565b610da481610763565b82525050565b610db3816107b9565b82525050565b600060a082019050610dce6000830188610d8c565b610ddb6020830187610d8c565b610de86040830186610d8c565b610df56060830185610d9b565b610e026080830184610daa565b9695505050505050565b6000602082019050610e216000830184610daa565b92915050565b600082825260208201905092915050565b6000610e43826108aa565b610e4d8185610e27565b9350610e5d818560208601610690565b610e66816105d3565b840191505092915050565b60006020820190508181036000830152610e8b8184610e38565b905092915050565b600081519050919050565b6000819050602082019050919050565b6000610eba8251610d82565b80915050919050565b6000610ece82610e93565b82610ed884610e9e565b9050610ee381610eae565b92506020821015610f2357610f1e7fffffffffffffffffffffffffffffffffffffffffffffffffffffffffffffffff8360200360080261093a565b831692505b5050919050565b6000610f3582610763565b9150610f4083610763565b9250828201905080821115610f5857610f57610b93565b5b92915050565b6000606082019050610f736000830186610daa565b610f806020830185610d9b565b610f8d6040830184610d9b565b949350505050565b6000602082019050610faa6000830184610d9b565b92915050565b60805160a05160c05160e05161010051610120516101405161236c61100a6000396000610f3601526000610efb0152600061144b0152600061142a01526000610d7401526000610dca01526000610df3015261236c6000f3fe608060405234801561001057600080fd5b50600436106101165760003560e01c806379cc6790116100a2578063a9059cbb11610071578063a9059cbb146102eb578063beb342c21461031b578063d505accf1461034c578063dd62ed3e14610368578063e98d5cd51461039857610116565b806379cc67901461025d5780637ecebe001461027957806384b0196e146102a957806395d89b41146102cd57610116565b80632d68efc9116100e95780632d68efc9146101b7578063313ce567146101d55780633644e515146101f357806342966c681461021157806370a082311461022d57610116565b806306fdde031461011b578063095ea7b31461013957806318160ddd1461016957806323b872dd14610187575b600080fd5b6101236103c9565b6040516101309190611938565b60405180910390f35b610153600480360381019061014e91906119f3565b61045b565b6040516101609190611a4e565b60405180910390f35b61017161047e565b60405161017e9190611a78565b60405180910390f35b6101a1600480360381019061019c9190611a93565b610488565b6040516101ae9190611a4e565b60405180910390f35b6101bf6104b7565b6040516101cc9190611af5565b60405180910390f35b6101dd6104dd565b6040516101ea9190611b2c565b60405180910390f35b6101fb6104f4565b6040516102089190611b60565b60405180910390f35b61022b60048036038101906102269190611b7b565b610503565b005b61024760048036038101906102429190611ba8565b610517565b6040516102549190611a78565b60405180910390f35b610277600480360381019061027291906119f3565b61055f565b005b610293600480360381019061028e9190611ba8565b61057f565b6040516102a09190611a78565b60405180910390f35b6102b1610591565b6040516102c49796959493929190611cce565b60405180910390f35b6102d561063b565b6040516102e29190611938565b60405180910390f35b610305600480360381019061030091906119f3565b6106cd565b6040516103129190611a4e565b60405180910390f35b61033560048036038101906103309190611d52565b6106f0565b604051610343929190611d92565b60405180910390f35b61036660048036038101906103619190611e13565b610877565b005b610382600480360381019061037d9190611eb5565b6109bf565b60405161038f9190611a78565b60405180910390f35b6103b260048036038101906103ad9190611d52565b610a46565b6040516103c0929190611d92565b60405180910390f35b6060600380546103d890611f24565b80601f016020809104026020016040519081016040528092919081815260200182805461040490611f24565b80156104515780601f1061042657610100808354040283529160200191610451565b820191906000526020600020905b81548152906001019060200180831161043457829003601f168201915b5050505050905090565b600080610466610bcd565b9050610473818585610bd5565b600191505092915050565b6000600254905090565b600080610493610bcd565b90506104a0858285610be7565b6104ab858585610c7c565b60019150509392505050565b600860019054906101000a900473ffffffffffffffffffffffffffffffffffffffff1681565b6000600860009054906101000a900460ff16905090565b60006104fe610d70565b905090565b61051461050e610bcd565b82610e27565b50565b60008060008373ffffffffffffffffffffffffffffffffffffffff1673ffffffffffffffffffffffffffffffffffffffff168152602001908152602001600020549050919050565b6105718261056b610bcd565b83610be7565b61057b8282610e27565b5050565b600061058a82610ea9565b9050919050565b6000606080600080600060606105a5610ef2565b6105ad610f2d565b46306000801b600067ffffffffffffffff8111156105ce576105cd611f55565b5b6040519080825280602002602001820160405280156105fc5781602001602082028036833780820191505090505b507f0f00000000000000000000000000000000000000000000000000000000000000959493929190965096509650965096509650965090919293949596565b60606004805461064a90611f24565b80601f016020809104026020016040519081016040528092919081815260200182805461067690611f24565b80156106c35780601f10610698576101008083540402835291602001916106c3565b820191906000526020600020905b8154815290600101906020018083116106a657829003601f168201915b5050505050905090565b6000806106d8610bcd565b90506106e5818585610c7c565b600191505092915050565b600080600860019054906101000a900473ffffffffffffffffffffffffffffffffffffffff1673ffffffffffffffffffffffffffffffffffffffff166323b872dd3330876040518463ffffffff1660e01b815260040161075293929190611f84565b6020604051808303816000875af1158015610771573d6000803e3d6000fd5b505050506040513d601f19601f820116820180604052508101906107959190611fe7565b5060006002856107a59190612043565b9050838110156107ea576040517f08c379a00000000000000000000000000000000000000000000000000000000081526004016107e1906120d1565b60405180910390fd5b3073ffffffffffffffffffffffffffffffffffffffff1663a9059cbb33836040518363ffffffff1660e01b81526004016108259291906120f1565b6020604051808303816000875af1158015610844573d6000803e3d6000fd5b505050506040513d601f19601f820116820180604052508101906108689190611fe7565b50848192509250509250929050565b834211156108bc57836040517f627913020000000000000000000000000000000000000000000000000000000081526004016108b39190611a78565b60405180910390fd5b60007f6e71edae12b1b97f4d1f60370fef10105fa2faae0126114a169c64845d6126c98888886108eb8c610f68565b896040516020016109019695949392919061211a565b604051602081830303815290604052805190602001209050600061092482610fbf565b9050600061093482878787610fd9565b90508973ffffffffffffffffffffffffffffffffffffffff168173ffffffffffffffffffffffffffffffffffffffff16146109a857808a6040517f4b800e4600000000000000000000000000000000000000000000000000000000815260040161099f92919061217b565b60405180910390fd5b6109b38a8a8a610bd5565b50505050505050505050565b6000600160008473ffffffffffffffffffffffffffffffffffffffff1673ffffffffffffffffffffffffffffffffffffffff16815260200190815260200160002060008373ffffffffffffffffffffffffffffffffffffffff1673ffffffffffffffffffffffffffffffffffffffff16815260200190815260200160002054905092915050565b6000803073ffffffffffffffffffffffffffffffffffffffff166323b872dd3330876040518463ffffffff1660e01b8152600401610a8693929190611f84565b6020604051808303816000875af1158015610aa5573d6000803e3d6000fd5b505050506040513d601f19601f82011682018060405250810190610ac99190611fe7565b506000600285610ad991906121d3565b905083811015610b1e576040517f08c379a0000000000000000000000000000000000000000000000000000000008152600401610b15906120d1565b60405180910390fd5b600860019054906101000a900473ffffffffffffffffffffffffffffffffffffffff1673ffffffffffffffffffffffffffffffffffffffff1663a9059cbb33836040518363ffffffff1660e01b8152600401610b7b9291906120f1565b6020604051808303816000875af1158015610b9a573d6000803e3d6000fd5b505050506040513d601f19601f82011682018060405250810190610bbe9190611fe7565b50848192509250509250929050565b600033905090565b610be28383836001611009565b505050565b6000610bf384846109bf565b90507fffffffffffffffffffffffffffffffffffffffffffffffffffffffffffffffff811015610c765781811015610c66578281836040517ffb8f41b2000000000000000000000000000000000000000000000000000000008152600401610c5d93929190612204565b60405180910390fd5b610c7584848484036000611009565b5b50505050565b600073ffffffffffffffffffffffffffffffffffffffff168373ffffffffffffffffffffffffffffffffffffffff1603610cee5760006040517f96c6fd1e000000000000000000000000000000000000000000000000000000008152600401610ce59190611af5565b60405180910390fd5b600073ffffffffffffffffffffffffffffffffffffffff168273ffffffffffffffffffffffffffffffffffffffff1603610d605760006040517fec442f05000000000000000000000000000000000000000000000000000000008152600401610d579190611af5565b60405180910390fd5b610d6b8383836111e0565b505050565b60007f000000000000000000000000000000000000000000000000000000000000000073ffffffffffffffffffffffffffffffffffffffff163073ffffffffffffffffffffffffffffffffffffffff16148015610dec57507f000000000000000000000000000000000000000000000000000000000000000046145b15610e19577f00000000000000000000000000000000000000000000000000000000000000009050610e24565b610e21611405565b90505b90565b600073ffffffffffffffffffffffffffffffffffffffff168273ffffffffffffffffffffffffffffffffffffffff1603610e995760006040517f96c6fd1e000000000000000000000000000000000000000000000000000000008152600401610e909190611af5565b60405180910390fd5b610ea5826000836111e0565b5050565b6000600760008373ffffffffffffffffffffffffffffffffffffffff1673ffffffffffffffffffffffffffffffffffffffff168152602001908152602001600020549050919050565b6060610f2860057f000000000000000000000000000000000000000000000000000000000000000061149b90919063ffffffff16565b905090565b6060610f6360067f000000000000000000000000000000000000000000000000000000000000000061149b90919063ffffffff16565b905090565b6000600760008373ffffffffffffffffffffffffffffffffffffffff1673ffffffffffffffffffffffffffffffffffffffff1681526020019081526020016000206000815480929190600101919050559050919050565b6000610fd2610fcc610d70565b8361154b565b9050919050565b600080600080610feb8888888861158c565b925092509250610ffb8282611680565b829350505050949350505050565b600073ffffffffffffffffffffffffffffffffffffffff168473ffffffffffffffffffffffffffffffffffffffff160361107b5760006040517fe602df050000000000000000000000000000000000000000000000000000000081526004016110729190611af5565b60405180910390fd5b600073ffffffffffffffffffffffffffffffffffffffff168373ffffffffffffffffffffffffffffffffffffffff16036110ed5760006040517f94280d620000000000000000000000000000000000000000000000000000000081526004016110e49190611af5565b60405180910390fd5b81600160008673ffffffffffffffffffffffffffffffffffffffff1673ffffffffffffffffffffffffffffffffffffffff16815260200190815260200160002060008573ffffffffffffffffffffffffffffffffffffffff1673ffffffffffffffffffffffffffffffffffffffff1681526020019081526020016000208190555080156111da578273ffffffffffffffffffffffffffffffffffffffff168473ffffffffffffffffffffffffffffffffffffffff167f8c5be1e5ebec7d5bd14f71427d1e84f3dd0314c0f7b2291e5b200ac8c7c3b925846040516111d19190611a78565b60405180910390a35b50505050565b600073ffffffffffffffffffffffffffffffffffffffff168373ffffffffffffffffffffffffffffffffffffffff1603611232578060026000828254611226919061223b565b92505081905550611305565b60008060008573ffffffffffffffffffffffffffffffffffffffff1673ffffffffffffffffffffffffffffffffffffffff168152602001908152602001600020549050818110156112be578381836040517fe450d38c0000000000000000000000000000000000000000000000000000000081526004016112b593929190612204565b60405180910390fd5b8181036000808673ffffffffffffffffffffffffffffffffffffffff1673ffffffffffffffffffffffffffffffffffffffff16815260200190815260200160002081905550505b600073ffffffffffffffffffffffffffffffffffffffff168273ffffffffffffffffffffffffffffffffffffffff160361134e578060026000828254039250508190555061139b565b806000808473ffffffffffffffffffffffffffffffffffffffff1673ffffffffffffffffffffffffffffffffffffffff168152602001908152602001600020600082825401925050819055505b8173ffffffffffffffffffffffffffffffffffffffff168373ffffffffffffffffffffffffffffffffffffffff167fddf252ad1be2c89b69c2b068fc378daa952ba7f163c4a11628f55a4df523b3ef836040516113f89190611a78565b60405180910390a3505050565b60007f8b73c3c69bb8fe3d512ecc4cf759cc79239f7b179b0ffacaa9a75d522b39400f7f00000000000000000000000000000000000000000000000000000000000000007f0000000000000000000000000000000000000000000000000000000000000000463060405160200161148095949392919061226f565b60405160208183030381529060405280519060200120905090565b606060ff60001b83146114b8576114b1836117e4565b9050611545565b8180546114c490611f24565b80601f01602080910402602001604051908101604052809291908181526020018280546114f090611f24565b801561153d5780601f106115125761010080835404028352916020019161153d565b820191906000526020600020905b81548152906001019060200180831161152057829003601f168201915b505050505090505b92915050565b60006040517f190100000000000000000000000000000000000000000000000000000000000081528360028201528260228201526042812091505092915050565b60008060007f7fffffffffffffffffffffffffffffff5d576e7357a4501ddfe92f46681b20a08460001c11156115cc576000600385925092509250611676565b6000600188888888604051600081526020016040526040516115f194939291906122c2565b6020604051602081039080840390855afa158015611613573d6000803e3d6000fd5b505050602060405103519050600073ffffffffffffffffffffffffffffffffffffffff168173ffffffffffffffffffffffffffffffffffffffff160361166757600060016000801b93509350935050611676565b8060008060001b935093509350505b9450945094915050565b6000600381111561169457611693612307565b5b8260038111156116a7576116a6612307565b5b03156117e057600160038111156116c1576116c0612307565b5b8260038111156116d4576116d3612307565b5b0361170b576040517ff645eedf00000000000000000000000000000000000000000000000000000000815260040160405180910390fd5b6002600381111561171f5761171e612307565b5b82600381111561173257611731612307565b5b03611777578060001c6040517ffce698f700000000000000000000000000000000000000000000000000000000815260040161176e9190611a78565b60405180910390fd5b60038081111561178a57611789612307565b5b82600381111561179d5761179c612307565b5b036117df57806040517fd78bce0c0000000000000000000000000000000000000000000000000000000081526004016117d69190611b60565b60405180910390fd5b5b5050565b606060006117f183611858565b90506000602067ffffffffffffffff8111156118105761180f611f55565b5b6040519080825280601f01601f1916602001820160405280156118425781602001600182028036833780820191505090505b5090508181528360208201528092505050919050565b60008060ff8360001c169050601f81111561189f576040517fb3512b0c00000000000000000000000000000000000000000000000000000000815260040160405180910390fd5b80915050919050565b600081519050919050565b600082825260208201905092915050565b60005b838110156118e25780820151818401526020810190506118c7565b60008484015250505050565b6000601f19601f8301169050919050565b600061190a826118a8565b61191481856118b3565b93506119248185602086016118c4565b61192d816118ee565b840191505092915050565b6000602082019050818103600083015261195281846118ff565b905092915050565b600080fd5b600073ffffffffffffffffffffffffffffffffffffffff82169050919050565b600061198a8261195f565b9050919050565b61199a8161197f565b81146119a557600080fd5b50565b6000813590506119b781611991565b92915050565b6000819050919050565b6119d0816119bd565b81146119db57600080fd5b50565b6000813590506119ed816119c7565b92915050565b60008060408385031215611a0a57611a0961195a565b5b6000611a18858286016119a8565b9250506020611a29858286016119de565b9150509250929050565b60008115159050919050565b611a4881611a33565b82525050565b6000602082019050611a636000830184611a3f565b92915050565b611a72816119bd565b82525050565b6000602082019050611a8d6000830184611a69565b92915050565b600080600060608486031215611aac57611aab61195a565b5b6000611aba868287016119a8565b9350506020611acb868287016119a8565b9250506040611adc868287016119de565b9150509250925092565b611aef8161197f565b82525050565b6000602082019050611b0a6000830184611ae6565b92915050565b600060ff82169050919050565b611b2681611b10565b82525050565b6000602082019050611b416000830184611b1d565b92915050565b6000819050919050565b611b5a81611b47565b82525050565b6000602082019050611b756000830184611b51565b92915050565b600060208284031215611b9157611b9061195a565b5b6000611b9f848285016119de565b91505092915050565b600060208284031215611bbe57611bbd61195a565b5b6000611bcc848285016119a8565b91505092915050565b60007fff0000000000000000000000000000000000000000000000000000000000000082169050919050565b611c0a81611bd5565b82525050565b600081519050919050565b600082825260208201905092915050565b6000819050602082019050919050565b611c45816119bd565b82525050565b6000611c578383611c3c565b60208301905092915050565b6000602082019050919050565b6000611c7b82611c10565b611c858185611c1b565b9350611c9083611c2c565b8060005b83811015611cc1578151611ca88882611c4b565b9750611cb383611c63565b925050600181019050611c94565b5085935050505092915050565b600060e082019050611ce3600083018a611c01565b8181036020830152611cf581896118ff565b90508181036040830152611d0981886118ff565b9050611d186060830187611a69565b611d256080830186611ae6565b611d3260a0830185611b51565b81810360c0830152611d448184611c70565b905098975050505050505050565b60008060408385031215611d6957611d6861195a565b5b6000611d77858286016119de565b9250506020611d88858286016119de565b9150509250929050565b6000604082019050611da76000830185611a69565b611db46020830184611a69565b9392505050565b611dc481611b10565b8114611dcf57600080fd5b50565b600081359050611de181611dbb565b92915050565b611df081611b47565b8114611dfb57600080fd5b50565b600081359050611e0d81611de7565b92915050565b600080600080600080600060e0888a031215611e3257611e3161195a565b5b6000611e408a828b016119a8565b9750506020611e518a828b016119a8565b9650506040611e628a828b016119de565b9550506060611e738a828b016119de565b9450506080611e848a828b01611dd2565b93505060a0611e958a828b01611dfe565b92505060c0611ea68a828b01611dfe565b91505092959891949750929550565b60008060408385031215611ecc57611ecb61195a565b5b6000611eda858286016119a8565b9250506020611eeb858286016119a8565b9150509250929050565b7f4e487b7100000000000000000000000000000000000000000000000000000000600052602260045260246000fd5b60006002820490506001821680611f3c57607f821691505b602082108103611f4f57611f4e611ef5565b5b50919050565b7f4e487b7100000000000000000000000000000000000000000000000000000000600052604160045260246000fd5b6000606082019050611f996000830186611ae6565b611fa66020830185611ae6565b611fb36040830184611a69565b949350505050565b611fc481611a33565b8114611fcf57600080fd5b50565b600081519050611fe181611fbb565b92915050565b600060208284031215611ffd57611ffc61195a565b5b600061200b84828501611fd2565b91505092915050565b7f4e487b7100000000000000000000000000000000000000000000000000000000600052601160045260246000fd5b600061204e826119bd565b9150612059836119bd565b9250828202612067816119bd565b9150828204841483151761207e5761207d612014565b5b5092915050565b7f494e53554646494349454e545f4f55545055545f414d4f554e54000000000000600082015250565b60006120bb601a836118b3565b91506120c682612085565b602082019050919050565b600060208201905081810360008301526120ea816120ae565b9050919050565b60006040820190506121066000830185611ae6565b6121136020830184611a69565b9392505050565b600060c08201905061212f6000830189611b51565b61213c6020830188611ae6565b6121496040830187611ae6565b6121566060830186611a69565b6121636080830185611a69565b61217060a0830184611a69565b979650505050505050565b60006040820190506121906000830185611ae6565b61219d6020830184611ae6565b9392505050565b7f4e487b7100000000000000000000000000000000000000000000000000000000600052601260045260246000fd5b60006121de826119bd565b91506121e9836119bd565b9250826121f9576121f86121a4565b5b828204905092915050565b60006060820190506122196000830186611ae6565b6122266020830185611a69565b6122336040830184611a69565b949350505050565b6000612246826119bd565b9150612251836119bd565b925082820190508082111561226957612268612014565b5b92915050565b600060a0820190506122846000830188611b51565b6122916020830187611b51565b61229e6040830186611b51565b6122ab6060830185611a69565b6122b86080830184611ae6565b9695505050505050565b60006080820190506122d76000830187611b51565b6122e46020830186611b1d565b6122f16040830185611b51565b6122fe6060830184611b51565b95945050505050565b7f4e487b7100000000000000000000000000000000000000000000000000000000600052602160045260246000fdfea264697066735822122004d63eafe47896c741a8595bc307ca4e602ad8f8b0696bc0f1436d21e61f0f3a64736f6c634300081c0033a2646970667358221220eb0301b2d7655b605ec5d242635456df93e5555d42de81337c320aadac802e3364736f6c634300081c0033",
  "devdoc": {
    "author": "hoanm (https://github.com/hoanm)",
    "custom:security-contact": "@title A Simple ERC20 token contract",
    "kind": "dev",
    "methods": {
      "createTokenWithInitialSupplyAndDecimals(string,string,uint8,uint256,address)": {
        "details": "Creates a new ERC20 token WITH the initial supplyThe token is owned by the caller of this functionThe minter is the caller of this function",
        "params": {
          "decimals_": "The number of decimals for the token",
          "initialSupply_": "The initial supply of tokens to be minted",
          "name_": "The name of the token",
          "symbol_": "The symbol of the token",
          "wNative_": "The address of native token"
        },
        "returns": {
          "_0": "The address of the newly created token"
        }
      }
    },
    "version": 1
  },
  "userdoc": {
    "kind": "user",
    "methods": {},
    "version": 1
  },
  "storageLayout": {
    "storage": [],
    "types": null
  }
}