{
  "address": "0x0b50FEaFF47fe1dE09e6F552a8eDBE74f42A4040",
  "abi": [
    {
      "inputs": [],
      "stateMutability": "nonpayable",
      "type": "constructor"
    },
    {
      "anonymous": false,
      "inputs": [
        {
          "indexed": false,
          "internalType": "address",
          "name": "tokenAddress",
          "type": "address"
        },
        {
          "indexed": false,
          "internalType": "string",
          "name": "name",
          "type": "string"
        },
        {
          "indexed": false,
          "internalType": "string",
          "name": "symbol",
          "type": "string"
        },
        {
          "indexed": false,
          "internalType": "uint8",
          "name": "decimals",
          "type": "uint8"
        },
        {
          "indexed": false,
          "internalType": "uint256",
          "name": "initialSupply",
          "type": "uint256"
        },
        {
          "indexed": false,
          "internalType": "address",
          "name": "owner",
          "type": "address"
        }
      ],
      "name": "TokenCreated",
      "type": "event"
    },
    {
      "inputs": [
        {
          "internalType": "string",
          "name": "name_",
          "type": "string"
        },
        {
          "internalType": "string",
          "name": "symbol_",
          "type": "string"
        }
      ],
      "name": "createToken",
      "outputs": [
        {
          "internalType": "address",
          "name": "",
          "type": "address"
        }
      ],
      "stateMutability": "nonpayable",
      "type": "function"
    },
    {
      "inputs": [
        {
          "internalType": "string",
          "name": "name_",
          "type": "string"
        },
        {
          "internalType": "string",
          "name": "symbol_",
          "type": "string"
        },
        {
          "internalType": "address",
          "name": "recipient",
          "type": "address"
        },
        {
          "internalType": "uint256",
          "name": "initialSupply",
          "type": "uint256"
        },
        {
          "internalType": "bool",
          "name": "isMintable",
          "type": "bool"
        }
      ],
      "name": "createTokenWithInitialSupply",
      "outputs": [
        {
          "internalType": "address",
          "name": "",
          "type": "address"
        }
      ],
      "stateMutability": "nonpayable",
      "type": "function"
    },
    {
      "inputs": [
        {
          "internalType": "string",
          "name": "name_",
          "type": "string"
        },
        {
          "internalType": "string",
          "name": "symbol_",
          "type": "string"
        },
        {
          "internalType": "uint8",
          "name": "decimals_",
          "type": "uint8"
        },
        {
          "internalType": "address",
          "name": "recipient",
          "type": "address"
        },
        {
          "internalType": "uint256",
          "name": "initialSupply",
          "type": "uint256"
        },
        {
          "internalType": "bool",
          "name": "isMintable",
          "type": "bool"
        }
      ],
      "name": "createTokenWithInitialSupplyAndDecimals",
      "outputs": [
        {
          "internalType": "address",
          "name": "",
          "type": "address"
        }
      ],
      "stateMutability": "nonpayable",
      "type": "function"
    }
  ],
  "transactionHash": "0x6b249963e3587a5ca7e8e819cfb8c0f1f053a0f3d14c1af7fb91482698708ad3",
  "args": [],
  "numDeployments": 1,
  "solcInputHash": "cbfae8950bff482411f16a92ea794d2e",
  "bytecode": "0x6080604052348015600f57600080fd5b5061441a8061001f6000396000f3fe608060405234801561001057600080fd5b50600436106100415760003560e01c806323271197146100465780632f2f2d56146100765780634a0646d9146100a6575b600080fd5b610060600480360381019061005b9190610518565b6100d6565b60405161006d91906105ec565b60405180910390f35b610090600480360381019061008b9190610607565b610172565b60405161009d91906105ec565b60405180910390f35b6100c060048036038101906100bb919061067f565b61020f565b6040516100cd91906105ec565b60405180910390f35b6000808433338a8a888b896040516100ed906102ac565b6100fe9897969594939291906107de565b604051809103906000f08015801561011a573d6000803e3d6000fd5b50905060008190507f96277b960035611e3efe74cc6f4dc654567ad6dfe7e479ece4303ecd0321ec12818a8a8a893360405161015b9695949392919061086a565b60405180910390a180925050509695505050505050565b600080333333868660006012600160405161018c906102ac565b61019d989796959493929190610959565b604051809103906000f0801580156101b9573d6000803e3d6000fd5b50905060008190507f96277b960035611e3efe74cc6f4dc654567ad6dfe7e479ece4303ecd0321ec1281868660126000336040516101fc969594939291906109e5565b60405180910390a1809250505092915050565b600080843333898988601289604051610227906102ac565b610238989796959493929190610a54565b604051809103906000f080158015610254573d6000803e3d6000fd5b50905060008190507f96277b960035611e3efe74cc6f4dc654567ad6dfe7e479ece4303ecd0321ec128189896012893360405161029696959493929190610ae0565b60405180910390a1809250505095945050505050565b61389580610b5083390190565b6000604051905090565b600080fd5b600080fd5b600080fd5b600080fd5b6000601f19601f8301169050919050565b7f4e487b7100000000000000000000000000000000000000000000000000000000600052604160045260246000fd5b610320826102d7565b810181811067ffffffffffffffff8211171561033f5761033e6102e8565b5b80604052505050565b60006103526102b9565b905061035e8282610317565b919050565b600067ffffffffffffffff82111561037e5761037d6102e8565b5b610387826102d7565b9050602081019050919050565b82818337600083830152505050565b60006103b66103b184610363565b610348565b9050828152602081018484840111156103d2576103d16102d2565b5b6103dd848285610394565b509392505050565b600082601f8301126103fa576103f96102cd565b5b813561040a8482602086016103a3565b91505092915050565b600060ff82169050919050565b61042981610413565b811461043457600080fd5b50565b60008135905061044681610420565b92915050565b600073ffffffffffffffffffffffffffffffffffffffff82169050919050565b60006104778261044c565b9050919050565b6104878161046c565b811461049257600080fd5b50565b6000813590506104a48161047e565b92915050565b6000819050919050565b6104bd816104aa565b81146104c857600080fd5b50565b6000813590506104da816104b4565b92915050565b60008115159050919050565b6104f5816104e0565b811461050057600080fd5b50565b600081359050610512816104ec565b92915050565b60008060008060008060c08789031215610535576105346102c3565b5b600087013567ffffffffffffffff811115610553576105526102c8565b5b61055f89828a016103e5565b965050602087013567ffffffffffffffff8111156105805761057f6102c8565b5b61058c89828a016103e5565b955050604061059d89828a01610437565b94505060606105ae89828a01610495565b93505060806105bf89828a016104cb565b92505060a06105d089828a01610503565b9150509295509295509295565b6105e68161046c565b82525050565b600060208201905061060160008301846105dd565b92915050565b6000806040838503121561061e5761061d6102c3565b5b600083013567ffffffffffffffff81111561063c5761063b6102c8565b5b610648858286016103e5565b925050602083013567ffffffffffffffff811115610669576106686102c8565b5b610675858286016103e5565b9150509250929050565b600080600080600060a0868803121561069b5761069a6102c3565b5b600086013567ffffffffffffffff8111156106b9576106b86102c8565b5b6106c5888289016103e5565b955050602086013567ffffffffffffffff8111156106e6576106e56102c8565b5b6106f2888289016103e5565b945050604061070388828901610495565b9350506060610714888289016104cb565b925050608061072588828901610503565b9150509295509295909350565b600081519050919050565b600082825260208201905092915050565b60005b8381101561076c578082015181840152602081019050610751565b60008484015250505050565b600061078382610732565b61078d818561073d565b935061079d81856020860161074e565b6107a6816102d7565b840191505092915050565b6107ba816104aa565b82525050565b6107c981610413565b82525050565b6107d8816104e0565b82525050565b6000610100820190506107f4600083018b6105dd565b610801602083018a6105dd565b61080e60408301896105dd565b81810360608301526108208188610778565b905081810360808301526108348187610778565b905061084360a08301866107b1565b61085060c08301856107c0565b61085d60e08301846107cf565b9998505050505050505050565b600060c08201905061087f60008301896105dd565b81810360208301526108918188610778565b905081810360408301526108a58187610778565b90506108b460608301866107c0565b6108c160808301856107b1565b6108ce60a08301846105dd565b979650505050505050565b6000819050919050565b6000819050919050565b60006109086109036108fe846108d9565b6108e3565b6104aa565b9050919050565b610918816108ed565b82525050565b6000819050919050565b600061094361093e6109398461091e565b6108e3565b610413565b9050919050565b61095381610928565b82525050565b60006101008201905061096f600083018b6105dd565b61097c602083018a6105dd565b61098960408301896105dd565b818103606083015261099b8188610778565b905081810360808301526109af8187610778565b90506109be60a083018661090f565b6109cb60c083018561094a565b6109d860e08301846107cf565b9998505050505050505050565b600060c0820190506109fa60008301896105dd565b8181036020830152610a0c8188610778565b90508181036040830152610a208187610778565b9050610a2f606083018661094a565b610a3c608083018561090f565b610a4960a08301846105dd565b979650505050505050565b600061010082019050610a6a600083018b6105dd565b610a77602083018a6105dd565b610a8460408301896105dd565b8181036060830152610a968188610778565b90508181036080830152610aaa8187610778565b9050610ab960a08301866107b1565b610ac660c083018561094a565b610ad360e08301846107cf565b9998505050505050505050565b600060c082019050610af560008301896105dd565b8181036020830152610b078188610778565b90508181036040830152610b1b8187610778565b9050610b2a606083018661094a565b610b3760808301856107b1565b610b4460a08301846105dd565b97965050505050505056fe61016060405234801561001157600080fd5b50604051613895380380613895833981810160405281019061003391906109c1565b84806040518060400160405280600181526020017f31000000000000000000000000000000000000000000000000000000000000008152508787816003908161007c9190610cc6565b50806004908161008c9190610cc6565b5050506100a36006836101f560201b90919060201c565b61012081815250506100bf6007826101f560201b90919060201c565b6101408181525050818051906020012060e08181525050808051906020012061010081815250504660a081815250506100fc61024560201b60201c565b608081815250503073ffffffffffffffffffffffffffffffffffffffff1660c08173ffffffffffffffffffffffffffffffffffffffff168152505050505080600960016101000a81548160ff02191690831515021790555081600960006101000a81548160ff021916908360ff1602179055506101a3886101816102a060201b60201c565b600a61018d9190610efa565b856101989190610f45565b6102b760201b60201c565b6101b66000801b8861033f60201b60201c565b506101e77f9f2df0fed2c77648de5860a4cc508cd0818c85b8b8a1ab4ceeef8d981c8956a68761033f60201b60201c565b5050505050505050506111b5565b6000602083511015610217576102108361043d60201b60201c565b905061023f565b82610227836104a560201b60201c565b60000190816102369190610cc6565b5060ff60001b90505b92915050565b60007f8b73c3c69bb8fe3d512ecc4cf759cc79239f7b179b0ffacaa9a75d522b39400f60e051610100514630604051602001610285959493929190610fbe565b60405160208183030381529060405280519060200120905090565b6000600960009054906101000a900460ff16905090565b600073ffffffffffffffffffffffffffffffffffffffff168273ffffffffffffffffffffffffffffffffffffffff16036103295760006040517fec442f050000000000000000000000000000000000000000000000000000000081526004016103209190611011565b60405180910390fd5b61033b600083836104af60201b60201c565b5050565b600061035183836106d460201b60201c565b6104325760016005600085815260200190815260200160002060000160008473ffffffffffffffffffffffffffffffffffffffff1673ffffffffffffffffffffffffffffffffffffffff16815260200190815260200160002060006101000a81548160ff0219169083151502179055506103cf61073f60201b60201c565b73ffffffffffffffffffffffffffffffffffffffff168273ffffffffffffffffffffffffffffffffffffffff16847f2f8788117e7eff1d82e926ec794901d17c78024a50270940304540a733656f0d60405160405180910390a460019050610437565b600090505b92915050565b600080829050601f8151111561048a57826040517f305a27a90000000000000000000000000000000000000000000000000000000081526004016104819190611076565b60405180910390fd5b805181610496906110c8565b60001c1760001b915050919050565b6000819050919050565b600073ffffffffffffffffffffffffffffffffffffffff168373ffffffffffffffffffffffffffffffffffffffff16036105015780600260008282546104f5919061112f565b925050819055506105d4565b60008060008573ffffffffffffffffffffffffffffffffffffffff1673ffffffffffffffffffffffffffffffffffffffff1681526020019081526020016000205490508181101561058d578381836040517fe450d38c00000000000000000000000000000000000000000000000000000000815260040161058493929190611163565b60405180910390fd5b8181036000808673ffffffffffffffffffffffffffffffffffffffff1673ffffffffffffffffffffffffffffffffffffffff16815260200190815260200160002081905550505b600073ffffffffffffffffffffffffffffffffffffffff168273ffffffffffffffffffffffffffffffffffffffff160361061d578060026000828254039250508190555061066a565b806000808473ffffffffffffffffffffffffffffffffffffffff1673ffffffffffffffffffffffffffffffffffffffff168152602001908152602001600020600082825401925050819055505b8173ffffffffffffffffffffffffffffffffffffffff168373ffffffffffffffffffffffffffffffffffffffff167fddf252ad1be2c89b69c2b068fc378daa952ba7f163c4a11628f55a4df523b3ef836040516106c7919061119a565b60405180910390a3505050565b60006005600084815260200190815260200160002060000160008373ffffffffffffffffffffffffffffffffffffffff1673ffffffffffffffffffffffffffffffffffffffff16815260200190815260200160002060009054906101000a900460ff16905092915050565b600033905090565b6000604051905090565b600080fd5b600080fd5b600073ffffffffffffffffffffffffffffffffffffffff82169050919050565b60006107868261075b565b9050919050565b6107968161077b565b81146107a157600080fd5b50565b6000815190506107b38161078d565b92915050565b600080fd5b600080fd5b6000601f19601f8301169050919050565b7f4e487b7100000000000000000000000000000000000000000000000000000000600052604160045260246000fd5b61080c826107c3565b810181811067ffffffffffffffff8211171561082b5761082a6107d4565b5b80604052505050565b600061083e610747565b905061084a8282610803565b919050565b600067ffffffffffffffff82111561086a576108696107d4565b5b610873826107c3565b9050602081019050919050565b60005b8381101561089e578082015181840152602081019050610883565b60008484015250505050565b60006108bd6108b88461084f565b610834565b9050828152602081018484840111156108d9576108d86107be565b5b6108e4848285610880565b509392505050565b600082601f830112610901576109006107b9565b5b81516109118482602086016108aa565b91505092915050565b6000819050919050565b61092d8161091a565b811461093857600080fd5b50565b60008151905061094a81610924565b92915050565b600060ff82169050919050565b61096681610950565b811461097157600080fd5b50565b6000815190506109838161095d565b92915050565b60008115159050919050565b61099e81610989565b81146109a957600080fd5b50565b6000815190506109bb81610995565b92915050565b600080600080600080600080610100898b0312156109e2576109e1610751565b5b60006109f08b828c016107a4565b9850506020610a018b828c016107a4565b9750506040610a128b828c016107a4565b965050606089015167ffffffffffffffff811115610a3357610a32610756565b5b610a3f8b828c016108ec565b955050608089015167ffffffffffffffff811115610a6057610a5f610756565b5b610a6c8b828c016108ec565b94505060a0610a7d8b828c0161093b565b93505060c0610a8e8b828c01610974565b92505060e0610a9f8b828c016109ac565b9150509295985092959890939650565b600081519050919050565b7f4e487b7100000000000000000000000000000000000000000000000000000000600052602260045260246000fd5b60006002820490506001821680610b0157607f821691505b602082108103610b1457610b13610aba565b5b50919050565b60008190508160005260206000209050919050565b60006020601f8301049050919050565b600082821b905092915050565b600060088302610b7c7fffffffffffffffffffffffffffffffffffffffffffffffffffffffffffffffff82610b3f565b610b868683610b3f565b95508019841693508086168417925050509392505050565b6000819050919050565b6000610bc3610bbe610bb98461091a565b610b9e565b61091a565b9050919050565b6000819050919050565b610bdd83610ba8565b610bf1610be982610bca565b848454610b4c565b825550505050565b600090565b610c06610bf9565b610c11818484610bd4565b505050565b5b81811015610c3557610c2a600082610bfe565b600181019050610c17565b5050565b601f821115610c7a57610c4b81610b1a565b610c5484610b2f565b81016020851015610c63578190505b610c77610c6f85610b2f565b830182610c16565b50505b505050565b600082821c905092915050565b6000610c9d60001984600802610c7f565b1980831691505092915050565b6000610cb68383610c8c565b9150826002028217905092915050565b610ccf82610aaf565b67ffffffffffffffff811115610ce857610ce76107d4565b5b610cf28254610ae9565b610cfd828285610c39565b600060209050601f831160018114610d305760008415610d1e578287015190505b610d288582610caa565b865550610d90565b601f198416610d3e86610b1a565b60005b82811015610d6657848901518255600182019150602085019450602081019050610d41565b86831015610d835784890151610d7f601f891682610c8c565b8355505b6001600288020188555050505b505050505050565b7f4e487b7100000000000000000000000000000000000000000000000000000000600052601160045260246000fd5b60008160011c9050919050565b6000808291508390505b6001851115610e1e57808604811115610dfa57610df9610d98565b5b6001851615610e095780820291505b8081029050610e1785610dc7565b9450610dde565b94509492505050565b600082610e375760019050610ef3565b81610e455760009050610ef3565b8160018114610e5b5760028114610e6557610e94565b6001915050610ef3565b60ff841115610e7757610e76610d98565b5b8360020a915084821115610e8e57610e8d610d98565b5b50610ef3565b5060208310610133831016604e8410600b8410161715610ec95782820a905083811115610ec457610ec3610d98565b5b610ef3565b610ed68484846001610dd4565b92509050818404811115610eed57610eec610d98565b5b81810290505b9392505050565b6000610f058261091a565b9150610f1083610950565b9250610f3d7fffffffffffffffffffffffffffffffffffffffffffffffffffffffffffffffff8484610e27565b905092915050565b6000610f508261091a565b9150610f5b8361091a565b9250828202610f698161091a565b91508282048414831517610f8057610f7f610d98565b5b5092915050565b6000819050919050565b610f9a81610f87565b82525050565b610fa98161091a565b82525050565b610fb88161077b565b82525050565b600060a082019050610fd36000830188610f91565b610fe06020830187610f91565b610fed6040830186610f91565b610ffa6060830185610fa0565b6110076080830184610faf565b9695505050505050565b60006020820190506110266000830184610faf565b92915050565b600082825260208201905092915050565b600061104882610aaf565b611052818561102c565b9350611062818560208601610880565b61106b816107c3565b840191505092915050565b60006020820190508181036000830152611090818461103d565b905092915050565b600081519050919050565b6000819050602082019050919050565b60006110bf8251610f87565b80915050919050565b60006110d382611098565b826110dd846110a3565b90506110e8816110b3565b92506020821015611128576111237fffffffffffffffffffffffffffffffffffffffffffffffffffffffffffffffff83602003600802610b3f565b831692505b5050919050565b600061113a8261091a565b91506111458361091a565b925082820190508082111561115d5761115c610d98565b5b92915050565b60006060820190506111786000830186610faf565b6111856020830185610fa0565b6111926040830184610fa0565b949350505050565b60006020820190506111af6000830184610fa0565b92915050565b60805160a05160c05160e05161010051610120516101405161268661120f60003960006112a80152600061126d0152600061180e015260006117ed01526000610f7101526000610fc701526000610ff001526126866000f3fe608060405234801561001057600080fd5b50600436106101735760003560e01c806346b45af7116100de57806395d89b4111610097578063d505accf11610071578063d505accf1461047a578063d539139314610496578063d547741f146104b4578063dd62ed3e146104d057610173565b806395d89b411461040e578063a217fddf1461042c578063a9059cbb1461044a57610173565b806346b45af71461032057806370a082311461033e57806379cc67901461036e5780637ecebe001461038a57806384b0196e146103ba57806391d14854146103de57610173565b80632f2ff15d116101305780632f2ff15d14610274578063313ce567146102905780633644e515146102ae57806336568abe146102cc57806340c10f19146102e857806342966c681461030457610173565b806301ffc9a71461017857806306fdde03146101a8578063095ea7b3146101c657806318160ddd146101f657806323b872dd14610214578063248a9ca314610244575b600080fd5b610192600480360381019061018d9190611cc8565b610500565b60405161019f9190611d10565b60405180910390f35b6101b061057a565b6040516101bd9190611dbb565b60405180910390f35b6101e060048036038101906101db9190611e71565b61060c565b6040516101ed9190611d10565b60405180910390f35b6101fe61062f565b60405161020b9190611ec0565b60405180910390f35b61022e60048036038101906102299190611edb565b610639565b60405161023b9190611d10565b60405180910390f35b61025e60048036038101906102599190611f64565b610668565b60405161026b9190611fa0565b60405180910390f35b61028e60048036038101906102899190611fbb565b610688565b005b6102986106aa565b6040516102a59190612017565b60405180910390f35b6102b66106c1565b6040516102c39190611fa0565b60405180910390f35b6102e660048036038101906102e19190611fbb565b6106d0565b005b61030260048036038101906102fd9190611e71565b61074b565b005b61031e60048036038101906103199190612032565b6107d3565b005b6103286107e7565b6040516103359190611d10565b60405180910390f35b6103586004803603810190610353919061205f565b6107fa565b6040516103659190611ec0565b60405180910390f35b61038860048036038101906103839190611e71565b610842565b005b6103a4600480360381019061039f919061205f565b610862565b6040516103b19190611ec0565b60405180910390f35b6103c2610874565b6040516103d59796959493929190612194565b60405180910390f35b6103f860048036038101906103f39190611fbb565b61091e565b6040516104059190611d10565b60405180910390f35b610416610989565b6040516104239190611dbb565b60405180910390f35b610434610a1b565b6040516104419190611fa0565b60405180910390f35b610464600480360381019061045f9190611e71565b610a22565b6040516104719190611d10565b60405180910390f35b610494600480360381019061048f9190612244565b610a45565b005b61049e610b8d565b6040516104ab9190611fa0565b60405180910390f35b6104ce60048036038101906104c99190611fbb565b610bb1565b005b6104ea60048036038101906104e591906122e6565b610bd3565b6040516104f79190611ec0565b60405180910390f35b60007f7965db0b000000000000000000000000000000000000000000000000000000007bffffffffffffffffffffffffffffffffffffffffffffffffffffffff1916827bffffffffffffffffffffffffffffffffffffffffffffffffffffffff19161480610573575061057282610c5a565b5b9050919050565b60606003805461058990612355565b80601f01602080910402602001604051908101604052809291908181526020018280546105b590612355565b80156106025780601f106105d757610100808354040283529160200191610602565b820191906000526020600020905b8154815290600101906020018083116105e557829003601f168201915b5050505050905090565b600080610617610cc4565b9050610624818585610ccc565b600191505092915050565b6000600254905090565b600080610644610cc4565b9050610651858285610cde565b61065c858585610d73565b60019150509392505050565b600060056000838152602001908152602001600020600101549050919050565b61069182610668565b61069a81610e67565b6106a48383610e7b565b50505050565b6000600960009054906101000a900460ff16905090565b60006106cb610f6d565b905090565b6106d8610cc4565b73ffffffffffffffffffffffffffffffffffffffff168173ffffffffffffffffffffffffffffffffffffffff161461073c576040517f6697b23200000000000000000000000000000000000000000000000000000000815260040160405180910390fd5b6107468282611024565b505050565b7f9f2df0fed2c77648de5860a4cc508cd0818c85b8b8a1ab4ceeef8d981c8956a661077581610e67565b600960019054906101000a900460ff166107c4576040517f08c379a00000000000000000000000000000000000000000000000000000000081526004016107bb906123d2565b60405180910390fd5b6107ce8383611117565b505050565b6107e46107de610cc4565b82611199565b50565b600960019054906101000a900460ff1681565b60008060008373ffffffffffffffffffffffffffffffffffffffff1673ffffffffffffffffffffffffffffffffffffffff168152602001908152602001600020549050919050565b6108548261084e610cc4565b83610cde565b61085e8282611199565b5050565b600061086d8261121b565b9050919050565b600060608060008060006060610888611264565b61089061129f565b46306000801b600067ffffffffffffffff8111156108b1576108b06123f2565b5b6040519080825280602002602001820160405280156108df5781602001602082028036833780820191505090505b507f0f00000000000000000000000000000000000000000000000000000000000000959493929190965096509650965096509650965090919293949596565b60006005600084815260200190815260200160002060000160008373ffffffffffffffffffffffffffffffffffffffff1673ffffffffffffffffffffffffffffffffffffffff16815260200190815260200160002060009054906101000a900460ff16905092915050565b60606004805461099890612355565b80601f01602080910402602001604051908101604052809291908181526020018280546109c490612355565b8015610a115780601f106109e657610100808354040283529160200191610a11565b820191906000526020600020905b8154815290600101906020018083116109f457829003601f168201915b5050505050905090565b6000801b81565b600080610a2d610cc4565b9050610a3a818585610d73565b600191505092915050565b83421115610a8a57836040517f62791302000000000000000000000000000000000000000000000000000000008152600401610a819190611ec0565b60405180910390fd5b60007f6e71edae12b1b97f4d1f60370fef10105fa2faae0126114a169c64845d6126c9888888610ab98c6112da565b89604051602001610acf96959493929190612421565b6040516020818303038152906040528051906020012090506000610af282611331565b90506000610b028287878761134b565b90508973ffffffffffffffffffffffffffffffffffffffff168173ffffffffffffffffffffffffffffffffffffffff1614610b7657808a6040517f4b800e46000000000000000000000000000000000000000000000000000000008152600401610b6d929190612482565b60405180910390fd5b610b818a8a8a610ccc565b50505050505050505050565b7f9f2df0fed2c77648de5860a4cc508cd0818c85b8b8a1ab4ceeef8d981c8956a681565b610bba82610668565b610bc381610e67565b610bcd8383611024565b50505050565b6000600160008473ffffffffffffffffffffffffffffffffffffffff1673ffffffffffffffffffffffffffffffffffffffff16815260200190815260200160002060008373ffffffffffffffffffffffffffffffffffffffff1673ffffffffffffffffffffffffffffffffffffffff16815260200190815260200160002054905092915050565b60007f01ffc9a7000000000000000000000000000000000000000000000000000000007bffffffffffffffffffffffffffffffffffffffffffffffffffffffff1916827bffffffffffffffffffffffffffffffffffffffffffffffffffffffff1916149050919050565b600033905090565b610cd9838383600161137b565b505050565b6000610cea8484610bd3565b90507fffffffffffffffffffffffffffffffffffffffffffffffffffffffffffffffff811015610d6d5781811015610d5d578281836040517ffb8f41b2000000000000000000000000000000000000000000000000000000008152600401610d54939291906124ab565b60405180910390fd5b610d6c8484848403600061137b565b5b50505050565b600073ffffffffffffffffffffffffffffffffffffffff168373ffffffffffffffffffffffffffffffffffffffff1603610de55760006040517f96c6fd1e000000000000000000000000000000000000000000000000000000008152600401610ddc91906124e2565b60405180910390fd5b600073ffffffffffffffffffffffffffffffffffffffff168273ffffffffffffffffffffffffffffffffffffffff1603610e575760006040517fec442f05000000000000000000000000000000000000000000000000000000008152600401610e4e91906124e2565b60405180910390fd5b610e62838383611552565b505050565b610e7881610e73610cc4565b611777565b50565b6000610e87838361091e565b610f625760016005600085815260200190815260200160002060000160008473ffffffffffffffffffffffffffffffffffffffff1673ffffffffffffffffffffffffffffffffffffffff16815260200190815260200160002060006101000a81548160ff021916908315150217905550610eff610cc4565b73ffffffffffffffffffffffffffffffffffffffff168273ffffffffffffffffffffffffffffffffffffffff16847f2f8788117e7eff1d82e926ec794901d17c78024a50270940304540a733656f0d60405160405180910390a460019050610f67565b600090505b92915050565b60007f000000000000000000000000000000000000000000000000000000000000000073ffffffffffffffffffffffffffffffffffffffff163073ffffffffffffffffffffffffffffffffffffffff16148015610fe957507f000000000000000000000000000000000000000000000000000000000000000046145b15611016577f00000000000000000000000000000000000000000000000000000000000000009050611021565b61101e6117c8565b90505b90565b6000611030838361091e565b1561110c5760006005600085815260200190815260200160002060000160008473ffffffffffffffffffffffffffffffffffffffff1673ffffffffffffffffffffffffffffffffffffffff16815260200190815260200160002060006101000a81548160ff0219169083151502179055506110a9610cc4565b73ffffffffffffffffffffffffffffffffffffffff168273ffffffffffffffffffffffffffffffffffffffff16847ff6391f5c32d9c69d2a47ea670b442974b53935d1edc7fd64eb21e047a839171b60405160405180910390a460019050611111565b600090505b92915050565b600073ffffffffffffffffffffffffffffffffffffffff168273ffffffffffffffffffffffffffffffffffffffff16036111895760006040517fec442f0500000000000000000000000000000000000000000000000000000000815260040161118091906124e2565b60405180910390fd5b61119560008383611552565b5050565b600073ffffffffffffffffffffffffffffffffffffffff168273ffffffffffffffffffffffffffffffffffffffff160361120b5760006040517f96c6fd1e00000000000000000000000000000000000000000000000000000000815260040161120291906124e2565b60405180910390fd5b61121782600083611552565b5050565b6000600860008373ffffffffffffffffffffffffffffffffffffffff1673ffffffffffffffffffffffffffffffffffffffff168152602001908152602001600020549050919050565b606061129a60067f000000000000000000000000000000000000000000000000000000000000000061185e90919063ffffffff16565b905090565b60606112d560077f000000000000000000000000000000000000000000000000000000000000000061185e90919063ffffffff16565b905090565b6000600860008373ffffffffffffffffffffffffffffffffffffffff1673ffffffffffffffffffffffffffffffffffffffff1681526020019081526020016000206000815480929190600101919050559050919050565b600061134461133e610f6d565b8361190e565b9050919050565b60008060008061135d8888888861194f565b92509250925061136d8282611a43565b829350505050949350505050565b600073ffffffffffffffffffffffffffffffffffffffff168473ffffffffffffffffffffffffffffffffffffffff16036113ed5760006040517fe602df050000000000000000000000000000000000000000000000000000000081526004016113e491906124e2565b60405180910390fd5b600073ffffffffffffffffffffffffffffffffffffffff168373ffffffffffffffffffffffffffffffffffffffff160361145f5760006040517f94280d6200000000000000000000000000000000000000000000000000000000815260040161145691906124e2565b60405180910390fd5b81600160008673ffffffffffffffffffffffffffffffffffffffff1673ffffffffffffffffffffffffffffffffffffffff16815260200190815260200160002060008573ffffffffffffffffffffffffffffffffffffffff1673ffffffffffffffffffffffffffffffffffffffff16815260200190815260200160002081905550801561154c578273ffffffffffffffffffffffffffffffffffffffff168473ffffffffffffffffffffffffffffffffffffffff167f8c5be1e5ebec7d5bd14f71427d1e84f3dd0314c0f7b2291e5b200ac8c7c3b925846040516115439190611ec0565b60405180910390a35b50505050565b600073ffffffffffffffffffffffffffffffffffffffff168373ffffffffffffffffffffffffffffffffffffffff16036115a4578060026000828254611598919061252c565b92505081905550611677565b60008060008573ffffffffffffffffffffffffffffffffffffffff1673ffffffffffffffffffffffffffffffffffffffff16815260200190815260200160002054905081811015611630578381836040517fe450d38c000000000000000000000000000000000000000000000000000000008152600401611627939291906124ab565b60405180910390fd5b8181036000808673ffffffffffffffffffffffffffffffffffffffff1673ffffffffffffffffffffffffffffffffffffffff16815260200190815260200160002081905550505b600073ffffffffffffffffffffffffffffffffffffffff168273ffffffffffffffffffffffffffffffffffffffff16036116c0578060026000828254039250508190555061170d565b806000808473ffffffffffffffffffffffffffffffffffffffff1673ffffffffffffffffffffffffffffffffffffffff168152602001908152602001600020600082825401925050819055505b8173ffffffffffffffffffffffffffffffffffffffff168373ffffffffffffffffffffffffffffffffffffffff167fddf252ad1be2c89b69c2b068fc378daa952ba7f163c4a11628f55a4df523b3ef8360405161176a9190611ec0565b60405180910390a3505050565b611781828261091e565b6117c45780826040517fe2517d3f0000000000000000000000000000000000000000000000000000000081526004016117bb929190612560565b60405180910390fd5b5050565b60007f8b73c3c69bb8fe3d512ecc4cf759cc79239f7b179b0ffacaa9a75d522b39400f7f00000000000000000000000000000000000000000000000000000000000000007f00000000000000000000000000000000000000000000000000000000000000004630604051602001611843959493929190612589565b60405160208183030381529060405280519060200120905090565b606060ff60001b831461187b5761187483611ba7565b9050611908565b81805461188790612355565b80601f01602080910402602001604051908101604052809291908181526020018280546118b390612355565b80156119005780601f106118d557610100808354040283529160200191611900565b820191906000526020600020905b8154815290600101906020018083116118e357829003601f168201915b505050505090505b92915050565b60006040517f190100000000000000000000000000000000000000000000000000000000000081528360028201528260228201526042812091505092915050565b60008060007f7fffffffffffffffffffffffffffffff5d576e7357a4501ddfe92f46681b20a08460001c111561198f576000600385925092509250611a39565b6000600188888888604051600081526020016040526040516119b494939291906125dc565b6020604051602081039080840390855afa1580156119d6573d6000803e3d6000fd5b505050602060405103519050600073ffffffffffffffffffffffffffffffffffffffff168173ffffffffffffffffffffffffffffffffffffffff1603611a2a57600060016000801b93509350935050611a39565b8060008060001b935093509350505b9450945094915050565b60006003811115611a5757611a56612621565b5b826003811115611a6a57611a69612621565b5b0315611ba35760016003811115611a8457611a83612621565b5b826003811115611a9757611a96612621565b5b03611ace576040517ff645eedf00000000000000000000000000000000000000000000000000000000815260040160405180910390fd5b60026003811115611ae257611ae1612621565b5b826003811115611af557611af4612621565b5b03611b3a578060001c6040517ffce698f7000000000000000000000000000000000000000000000000000000008152600401611b319190611ec0565b60405180910390fd5b600380811115611b4d57611b4c612621565b5b826003811115611b6057611b5f612621565b5b03611ba257806040517fd78bce0c000000000000000000000000000000000000000000000000000000008152600401611b999190611fa0565b60405180910390fd5b5b5050565b60606000611bb483611c1b565b90506000602067ffffffffffffffff811115611bd357611bd26123f2565b5b6040519080825280601f01601f191660200182016040528015611c055781602001600182028036833780820191505090505b5090508181528360208201528092505050919050565b60008060ff8360001c169050601f811115611c62576040517fb3512b0c00000000000000000000000000000000000000000000000000000000815260040160405180910390fd5b80915050919050565b600080fd5b60007fffffffff0000000000000000000000000000000000000000000000000000000082169050919050565b611ca581611c70565b8114611cb057600080fd5b50565b600081359050611cc281611c9c565b92915050565b600060208284031215611cde57611cdd611c6b565b5b6000611cec84828501611cb3565b91505092915050565b60008115159050919050565b611d0a81611cf5565b82525050565b6000602082019050611d256000830184611d01565b92915050565b600081519050919050565b600082825260208201905092915050565b60005b83811015611d65578082015181840152602081019050611d4a565b60008484015250505050565b6000601f19601f8301169050919050565b6000611d8d82611d2b565b611d978185611d36565b9350611da7818560208601611d47565b611db081611d71565b840191505092915050565b60006020820190508181036000830152611dd58184611d82565b905092915050565b600073ffffffffffffffffffffffffffffffffffffffff82169050919050565b6000611e0882611ddd565b9050919050565b611e1881611dfd565b8114611e2357600080fd5b50565b600081359050611e3581611e0f565b92915050565b6000819050919050565b611e4e81611e3b565b8114611e5957600080fd5b50565b600081359050611e6b81611e45565b92915050565b60008060408385031215611e8857611e87611c6b565b5b6000611e9685828601611e26565b9250506020611ea785828601611e5c565b9150509250929050565b611eba81611e3b565b82525050565b6000602082019050611ed56000830184611eb1565b92915050565b600080600060608486031215611ef457611ef3611c6b565b5b6000611f0286828701611e26565b9350506020611f1386828701611e26565b9250506040611f2486828701611e5c565b9150509250925092565b6000819050919050565b611f4181611f2e565b8114611f4c57600080fd5b50565b600081359050611f5e81611f38565b92915050565b600060208284031215611f7a57611f79611c6b565b5b6000611f8884828501611f4f565b91505092915050565b611f9a81611f2e565b82525050565b6000602082019050611fb56000830184611f91565b92915050565b60008060408385031215611fd257611fd1611c6b565b5b6000611fe085828601611f4f565b9250506020611ff185828601611e26565b9150509250929050565b600060ff82169050919050565b61201181611ffb565b82525050565b600060208201905061202c6000830184612008565b92915050565b60006020828403121561204857612047611c6b565b5b600061205684828501611e5c565b91505092915050565b60006020828403121561207557612074611c6b565b5b600061208384828501611e26565b91505092915050565b60007fff0000000000000000000000000000000000000000000000000000000000000082169050919050565b6120c18161208c565b82525050565b6120d081611dfd565b82525050565b600081519050919050565b600082825260208201905092915050565b6000819050602082019050919050565b61210b81611e3b565b82525050565b600061211d8383612102565b60208301905092915050565b6000602082019050919050565b6000612141826120d6565b61214b81856120e1565b9350612156836120f2565b8060005b8381101561218757815161216e8882612111565b975061217983612129565b92505060018101905061215a565b5085935050505092915050565b600060e0820190506121a9600083018a6120b8565b81810360208301526121bb8189611d82565b905081810360408301526121cf8188611d82565b90506121de6060830187611eb1565b6121eb60808301866120c7565b6121f860a0830185611f91565b81810360c083015261220a8184612136565b905098975050505050505050565b61222181611ffb565b811461222c57600080fd5b50565b60008135905061223e81612218565b92915050565b600080600080600080600060e0888a03121561226357612262611c6b565b5b60006122718a828b01611e26565b97505060206122828a828b01611e26565b96505060406122938a828b01611e5c565b95505060606122a48a828b01611e5c565b94505060806122b58a828b0161222f565b93505060a06122c68a828b01611f4f565b92505060c06122d78a828b01611f4f565b91505092959891949750929550565b600080604083850312156122fd576122fc611c6b565b5b600061230b85828601611e26565b925050602061231c85828601611e26565b9150509250929050565b7f4e487b7100000000000000000000000000000000000000000000000000000000600052602260045260246000fd5b6000600282049050600182168061236d57607f821691505b6020821081036123805761237f612326565b5b50919050565b7f4d696e74696e672069732064697361626c656400000000000000000000000000600082015250565b60006123bc601383611d36565b91506123c782612386565b602082019050919050565b600060208201905081810360008301526123eb816123af565b9050919050565b7f4e487b7100000000000000000000000000000000000000000000000000000000600052604160045260246000fd5b600060c0820190506124366000830189611f91565b61244360208301886120c7565b61245060408301876120c7565b61245d6060830186611eb1565b61246a6080830185611eb1565b61247760a0830184611eb1565b979650505050505050565b600060408201905061249760008301856120c7565b6124a460208301846120c7565b9392505050565b60006060820190506124c060008301866120c7565b6124cd6020830185611eb1565b6124da6040830184611eb1565b949350505050565b60006020820190506124f760008301846120c7565b92915050565b7f4e487b7100000000000000000000000000000000000000000000000000000000600052601160045260246000fd5b600061253782611e3b565b915061254283611e3b565b925082820190508082111561255a576125596124fd565b5b92915050565b600060408201905061257560008301856120c7565b6125826020830184611f91565b9392505050565b600060a08201905061259e6000830188611f91565b6125ab6020830187611f91565b6125b86040830186611f91565b6125c56060830185611eb1565b6125d260808301846120c7565b9695505050505050565b60006080820190506125f16000830187611f91565b6125fe6020830186612008565b61260b6040830185611f91565b6126186060830184611f91565b95945050505050565b7f4e487b7100000000000000000000000000000000000000000000000000000000600052602160045260246000fdfea2646970667358221220ff389c44b70789a7f8ad151bd06c7b911f3f4fa122741b3b4ba366f35191678d64736f6c634300081c0033a264697066735822122060ebb5cda945a0ebf94520b0bf28eb2a3def1013bb527ddcb715edf609f7dd1f64736f6c634300081c0033",
  "devdoc": {
    "author": "hoanm (https://github.com/hoanm)",
    "custom:security-contact": "@title A Simple ERC20 token contract",
    "kind": "dev",
    "methods": {
      "createToken(string,string)": {
        "details": "Creates a new ERC20 token WITHOUT the initial supplyThe token is owned by the caller of this functionThe minter is the caller of this functionDecimals is set to 18The token must be mintable by default",
        "params": {
          "name_": "The name of the token",
          "symbol_": "The symbol of the token"
        },
        "returns": {
          "_0": "The address of the newly created token"
        }
      },
      "createTokenWithInitialSupply(string,string,address,uint256,bool)": {
        "details": "Creates a new ERC20 token WITH the initial supplyThe token is owned by the caller of this functionThe minter is the caller of this functionDecimals is set to 18",
        "params": {
          "initialSupply": "The initial supply of tokens to be minted",
          "isMintable": "Whether the token is mintable or not",
          "name_": "The name of the token",
          "recipient": "The address to receive the initial supply of tokens",
          "symbol_": "The symbol of the token"
        },
        "returns": {
          "_0": "The address of the newly created token"
        }
      },
      "createTokenWithInitialSupplyAndDecimals(string,string,uint8,address,uint256,bool)": {
        "details": "Creates a new ERC20 token WITH the initial supplyThe token is owned by the caller of this functionThe minter is the caller of this function",
        "params": {
          "decimals_": "The number of decimals for the token",
          "initialSupply": "The initial supply of tokens to be minted",
          "isMintable": "Whether the token is mintable or not",
          "name_": "The name of the token",
          "recipient": "The address to receive the initial supply of tokens",
          "symbol_": "The symbol of the token"
        },
        "returns": {
          "_0": "The address of the newly created token"
        }
      }
    },
    "version": 1
  },
  "userdoc": {
    "kind": "user",
    "methods": {},
    "version": 1
  },
  "storageLayout": {
    "storage": [],
    "types": null
  }
}